{
  "contractName": "ntt54_Factory",
  "abi": [
    {
      "inputs": [
        {
          "internalType": "address",
          "name": "_admin",
          "type": "address"
        }
      ],
      "stateMutability": "nonpayable",
      "type": "constructor"
    },
    {
      "inputs": [],
      "name": "admin",
      "outputs": [
        {
          "internalType": "address",
          "name": "",
          "type": "address"
        }
      ],
      "stateMutability": "view",
      "type": "function",
      "constant": true
    },
    {
      "inputs": [
        {
          "internalType": "uint256",
          "name": "",
          "type": "uint256"
        }
      ],
      "name": "tokenIDs",
      "outputs": [
        {
          "internalType": "bytes32",
          "name": "",
          "type": "bytes32"
        }
      ],
      "stateMutability": "view",
      "type": "function",
      "constant": true
    },
    {
      "inputs": [
        {
          "internalType": "bytes32",
          "name": "",
          "type": "bytes32"
        }
      ],
      "name": "tokens",
      "outputs": [
        {
          "internalType": "bytes32",
          "name": "tokenID",
          "type": "bytes32"
        },
        {
          "internalType": "bytes8",
          "name": "tokenTicker",
          "type": "bytes8"
        },
        {
          "internalType": "uint256",
          "name": "tokenSupply",
          "type": "uint256"
        },
        {
          "internalType": "address",
          "name": "tokenAddress",
          "type": "address"
        }
      ],
      "stateMutability": "view",
      "type": "function",
      "constant": true
    },
    {
      "inputs": [],
      "name": "getAllTokens",
      "outputs": [
        {
          "components": [
            {
              "internalType": "bytes32",
              "name": "tokenID",
              "type": "bytes32"
            },
            {
              "internalType": "bytes8",
              "name": "tokenTicker",
              "type": "bytes8"
            },
            {
              "internalType": "uint256",
              "name": "tokenSupply",
              "type": "uint256"
            },
            {
              "internalType": "address",
              "name": "tokenAddress",
              "type": "address"
            }
          ],
          "internalType": "struct ntt54_Factory.Token[]",
          "name": "",
          "type": "tuple[]"
        }
      ],
      "stateMutability": "view",
      "type": "function",
      "constant": true
    },
    {
      "inputs": [
        {
          "internalType": "bytes32[]",
          "name": "names",
          "type": "bytes32[]"
        },
        {
          "internalType": "bytes8[]",
          "name": "tickers",
          "type": "bytes8[]"
        },
        {
          "internalType": "uint256[]",
          "name": "initialSupply",
          "type": "uint256[]"
        }
      ],
      "name": "initialERC20Mint",
      "outputs": [],
      "stateMutability": "nonpayable",
      "type": "function"
    },
    {
      "inputs": [
        {
          "internalType": "address",
          "name": "newAdmin",
          "type": "address"
        },
        {
          "internalType": "bytes32",
          "name": "tokID",
          "type": "bytes32"
        }
      ],
      "name": "changeAdminOfERC20",
      "outputs": [],
      "stateMutability": "nonpayable",
      "type": "function"
    },
    {
      "inputs": [
        {
          "internalType": "address",
          "name": "spender",
          "type": "address"
        }
      ],
      "name": "approveAddress",
      "outputs": [],
      "stateMutability": "nonpayable",
      "type": "function"
    }
  ],
  "bytecode": "0x60806040523480156200001157600080fd5b5060405162003fb938038062003fb9833981810160405281019062000037919062000095565b806000806101000a81548173ffffffffffffffffffffffffffffffffffffffff021916908373ffffffffffffffffffffffffffffffffffffffff160217905550506200010f565b6000815190506200008f81620000f5565b92915050565b600060208284031215620000a857600080fd5b6000620000b8848285016200007e565b91505092915050565b6000620000ce82620000d5565b9050919050565b600073ffffffffffffffffffffffffffffffffffffffff82169050919050565b6200010081620000c1565b81146200010c57600080fd5b50565b613e9a806200011f6000396000f3fe60806040523480156200001157600080fd5b5060043610620000885760003560e01c80638b0e513811620000635780638b0e51381462000105578063904194a31462000125578063f851a440146200015e578063fabf657a14620001805762000088565b806306f356dc146200008d5780632a5c792a14620000c35780635a171efa14620000e5575b600080fd5b620000ab6004803603810190620000a5919062001387565b620001a0565b604051620000ba919062001779565b60405180910390f35b620000cd620001c5565b604051620000dc919062001755565b60405180910390f35b620001036004803603810190620000fd91906200128e565b620003dd565b005b6200012360048036038101906200011d91906200124d565b6200093a565b005b6200014360048036038101906200013d91906200135b565b62000c13565b60405162000155949392919062001796565b60405180910390f35b6200016862000c70565b6040516200017791906200170b565b60405180910390f35b6200019e6004803603810190620001989190620011f5565b62000c94565b005b60028181548110620001b157600080fd5b906000526020600020016000915090505481565b6060600060028054905067ffffffffffffffff8111156200020f577f4e487b7100000000000000000000000000000000000000000000000000000000600052604160045260246000fd5b6040519080825280602002602001820160405280156200024c57816020015b6200023862000f04565b8152602001906001900390816200022e5790505b50905060005b600280549050811015620003d55760016000600283815481106200029f577f4e487b7100000000000000000000000000000000000000000000000000000000600052603260045260246000fd5b90600052602060002001548152602001908152602001600020604051806080016040529081600082015481526020016001820160009054906101000a900460c01b77ffffffffffffffffffffffffffffffffffffffffffffffff191677ffffffffffffffffffffffffffffffffffffffffffffffff19168152602001600282015481526020016003820160009054906101000a900473ffffffffffffffffffffffffffffffffffffffff1673ffffffffffffffffffffffffffffffffffffffff1673ffffffffffffffffffffffffffffffffffffffff1681525050828281518110620003b4577f4e487b7100000000000000000000000000000000000000000000000000000000600052603260045260246000fd5b60200260200101819052508080620003cc9062001a60565b91505062000252565b508091505090565b60008054906101000a900473ffffffffffffffffffffffffffffffffffffffff1673ffffffffffffffffffffffffffffffffffffffff163373ffffffffffffffffffffffffffffffffffffffff16146200046e576040517f08c379a000000000000000000000000000000000000000000000000000000000815260040162000465906200182e565b60405180910390fd5b8151835114801562000481575080518351145b620004c3576040517f08c379a0000000000000000000000000000000000000000000000000000000008152600401620004ba9062001850565b60405180910390fd5b60005b83518110156200093457600073ffffffffffffffffffffffffffffffffffffffff166001600086848151811062000526577f4e487b7100000000000000000000000000000000000000000000000000000000600052603260045260246000fd5b6020026020010151815260200190815260200160002060030160009054906101000a900473ffffffffffffffffffffffffffffffffffffffff1673ffffffffffffffffffffffffffffffffffffffff1614156200091e576000848281518110620005b9577f4e487b7100000000000000000000000000000000000000000000000000000000600052603260045260246000fd5b6020026020010151604051602001620005d39190620016d1565b6040516020818303038152906040528483815181106200061c577f4e487b7100000000000000000000000000000000000000000000000000000000600052603260045260246000fd5b6020026020010151604051602001620006369190620016ee565b6040516020818303038152906040528484815181106200067f577f4e487b7100000000000000000000000000000000000000000000000000000000600052603260045260246000fd5b6020026020010151604051620006959062000f60565b620006a393929190620017e3565b604051809103906000f080158015620006c0573d6000803e3d6000fd5b509050604051806080016040528086848151811062000708577f4e487b7100000000000000000000000000000000000000000000000000000000600052603260045260246000fd5b602002602001015181526020018584815181106200074f577f4e487b7100000000000000000000000000000000000000000000000000000000600052603260045260246000fd5b602002602001015177ffffffffffffffffffffffffffffffffffffffffffffffff19168152602001848481518110620007b1577f4e487b7100000000000000000000000000000000000000000000000000000000600052603260045260246000fd5b602002602001015181526020018273ffffffffffffffffffffffffffffffffffffffff168152506001600087858151811062000816577f4e487b7100000000000000000000000000000000000000000000000000000000600052603260045260246000fd5b602002602001015181526020019081526020016000206000820151816000015560208201518160010160006101000a81548167ffffffffffffffff021916908360c01c02179055506040820151816002015560608201518160030160006101000a81548173ffffffffffffffffffffffffffffffffffffffff021916908373ffffffffffffffffffffffffffffffffffffffff1602179055509050506002858381518110620008ee577f4e487b7100000000000000000000000000000000000000000000000000000000600052603260045260246000fd5b60200260200101519080600181540180825580915050600190039060005260206000200160009091909190915055505b80806200092b9062001a60565b915050620004c6565b50505050565b60008054906101000a900473ffffffffffffffffffffffffffffffffffffffff1673ffffffffffffffffffffffffffffffffffffffff163373ffffffffffffffffffffffffffffffffffffffff1614620009cb576040517f08c379a0000000000000000000000000000000000000000000000000000000008152600401620009c2906200182e565b60405180910390fd5b600073ffffffffffffffffffffffffffffffffffffffff166001600083815260200190815260200160002060030160009054906101000a900473ffffffffffffffffffffffffffffffffffffffff1673ffffffffffffffffffffffffffffffffffffffff16141562000a74576040517f08c379a000000000000000000000000000000000000000000000000000000000815260040162000a6b9062001872565b60405180910390fd5b60006001600083815260200190815260200160002060030160009054906101000a900473ffffffffffffffffffffffffffffffffffffffff1690503073ffffffffffffffffffffffffffffffffffffffff168173ffffffffffffffffffffffffffffffffffffffff1663f851a4406040518163ffffffff1660e01b815260040160206040518083038186803b15801562000b0d57600080fd5b505afa15801562000b22573d6000803e3d6000fd5b505050506040513d601f19601f8201168201806040525081019062000b48919062001221565b73ffffffffffffffffffffffffffffffffffffffff1614801562000b9857503073ffffffffffffffffffffffffffffffffffffffff168373ffffffffffffffffffffffffffffffffffffffff1614155b1562000c0e578073ffffffffffffffffffffffffffffffffffffffff16638f283970846040518263ffffffff1660e01b815260040162000bd991906200170b565b600060405180830381600087803b15801562000bf457600080fd5b505af115801562000c09573d6000803e3d6000fd5b505050505b505050565b60016020528060005260406000206000915090508060000154908060010160009054906101000a900460c01b908060020154908060030160009054906101000a900473ffffffffffffffffffffffffffffffffffffffff16905084565b60008054906101000a900473ffffffffffffffffffffffffffffffffffffffff1681565b60008054906101000a900473ffffffffffffffffffffffffffffffffffffffff1673ffffffffffffffffffffffffffffffffffffffff163373ffffffffffffffffffffffffffffffffffffffff161462000d25576040517f08c379a000000000000000000000000000000000000000000000000000000000815260040162000d1c906200182e565b60405180910390fd5b60005b60028054905081101562000f00576000600160006002848154811062000d77577f4e487b7100000000000000000000000000000000000000000000000000000000600052603260045260246000fd5b9060005260206000200154815260200190815260200160002060030160009054906101000a900473ffffffffffffffffffffffffffffffffffffffff16905060008173ffffffffffffffffffffffffffffffffffffffff166370a08231306040518263ffffffff1660e01b815260040162000df391906200170b565b60206040518083038186803b15801562000e0c57600080fd5b505afa15801562000e21573d6000803e3d6000fd5b505050506040513d601f19601f8201168201806040525081019062000e479190620013b3565b9050600081111562000ee8578173ffffffffffffffffffffffffffffffffffffffff1663095ea7b385836040518363ffffffff1660e01b815260040162000e9092919062001728565b602060405180830381600087803b15801562000eab57600080fd5b505af115801562000ec0573d6000803e3d6000fd5b505050506040513d601f19601f8201168201806040525081019062000ee691906200132f565b505b5050808062000ef79062001a60565b91505062000d28565b5050565b604051806080016040528060008019168152602001600077ffffffffffffffffffffffffffffffffffffffffffffffff1916815260200160008152602001600073ffffffffffffffffffffffffffffffffffffffff1681525090565b6122b18062001bb483390190565b600062000f8562000f7f84620018c8565b62001894565b9050808382526020820190508285602086028201111562000fa557600080fd5b60005b8581101562000fd9578162000fbe888262001199565b84526020840193506020830192505060018101905062000fa8565b5050509392505050565b600062000ffa62000ff484620018f7565b62001894565b905080838252602082019050828560208602820111156200101a57600080fd5b60005b858110156200104e5781620010338882620011b0565b8452602084019350602083019250506001810190506200101d565b5050509392505050565b60006200106f620010698462001926565b62001894565b905080838252602082019050828560208602820111156200108f57600080fd5b60005b85811015620010c35781620010a88882620011c7565b84526020840193506020830192505060018101905062001092565b5050509392505050565b600081359050620010de8162001b31565b92915050565b600081519050620010f58162001b31565b92915050565b600082601f8301126200110d57600080fd5b81356200111f84826020860162000f6e565b91505092915050565b600082601f8301126200113a57600080fd5b81356200114c84826020860162000fe3565b91505092915050565b600082601f8301126200116757600080fd5b81356200117984826020860162001058565b91505092915050565b600081519050620011938162001b4b565b92915050565b600081359050620011aa8162001b65565b92915050565b600081359050620011c18162001b7f565b92915050565b600081359050620011d88162001b99565b92915050565b600081519050620011ef8162001b99565b92915050565b6000602082840312156200120857600080fd5b60006200121884828501620010cd565b91505092915050565b6000602082840312156200123457600080fd5b60006200124484828501620010e4565b91505092915050565b600080604083850312156200126157600080fd5b60006200127185828601620010cd565b9250506020620012848582860162001199565b9150509250929050565b600080600060608486031215620012a457600080fd5b600084013567ffffffffffffffff811115620012bf57600080fd5b620012cd86828701620010fb565b935050602084013567ffffffffffffffff811115620012eb57600080fd5b620012f98682870162001128565b925050604084013567ffffffffffffffff8111156200131757600080fd5b620013258682870162001155565b9150509250925092565b6000602082840312156200134257600080fd5b6000620013528482850162001182565b91505092915050565b6000602082840312156200136e57600080fd5b60006200137e8482850162001199565b91505092915050565b6000602082840312156200139a57600080fd5b6000620013aa84828501620011c7565b91505092915050565b600060208284031215620013c657600080fd5b6000620013d684828501620011de565b91505092915050565b6000620013ed838362001652565b60808301905092915050565b6200140481620019aa565b82525050565b6200141581620019aa565b82525050565b6000620014288262001965565b62001434818562001988565b9350620014418362001955565b8060005b83811015620014785781516200145c8882620013df565b975062001469836200197b565b92505060018101905062001445565b5085935050505092915050565b6200149081620019ca565b82525050565b620014a181620019ca565b82525050565b620014bc620014b682620019ca565b62001aae565b82525050565b620014cd81620019d4565b82525050565b620014de81620019d4565b82525050565b620014f9620014f382620019d4565b62001ab8565b82525050565b60006200150c8262001970565b62001518818562001999565b93506200152a81856020860162001a2a565b620015358162001b20565b840191505092915050565b60006200154f60288362001999565b91507f6f6e6c792061646d696e20697320616c6c6f77656420746869732066756e637460008301527f696f6e616c6974790000000000000000000000000000000000000000000000006020830152604082019050919050565b6000620015b7603f8362001999565b91507f617272617973206f66206e616d65732c7469636b6572732c696e697469616c5360008301527f7570706c79206d7573742068617665207468652073616d65206c656e677468006020830152604082019050919050565b60006200161f60148362001999565b91507f746f6b656e20646f6573206e6f742065786973740000000000000000000000006000830152602082019050919050565b6080820160008201516200166a600085018262001485565b5060208201516200167f6020850182620014c2565b506040820151620016946040850182620016af565b506060820151620016a96060850182620013f9565b50505050565b620016ba8162001a20565b82525050565b620016cb8162001a20565b82525050565b6000620016df8284620014a7565b60208201915081905092915050565b6000620016fc8284620014e4565b60088201915081905092915050565b60006020820190506200172260008301846200140a565b92915050565b60006040820190506200173f60008301856200140a565b6200174e6020830184620016c0565b9392505050565b600060208201905081810360008301526200177181846200141b565b905092915050565b600060208201905062001790600083018462001496565b92915050565b6000608082019050620017ad600083018762001496565b620017bc6020830186620014d3565b620017cb6040830185620016c0565b620017da60608301846200140a565b95945050505050565b60006060820190508181036000830152620017ff8186620014ff565b90508181036020830152620018158185620014ff565b9050620018266040830184620016c0565b949350505050565b60006020820190508181036000830152620018498162001540565b9050919050565b600060208201905081810360008301526200186b81620015a8565b9050919050565b600060208201905081810360008301526200188d8162001610565b9050919050565b6000604051905081810181811067ffffffffffffffff82111715620018be57620018bd62001af1565b5b8060405250919050565b600067ffffffffffffffff821115620018e657620018e562001af1565b5b602082029050602081019050919050565b600067ffffffffffffffff82111562001915576200191462001af1565b5b602082029050602081019050919050565b600067ffffffffffffffff82111562001944576200194362001af1565b5b602082029050602081019050919050565b6000819050602082019050919050565b600081519050919050565b600081519050919050565b6000602082019050919050565b600082825260208201905092915050565b600082825260208201905092915050565b6000620019b78262001a00565b9050919050565b60008115159050919050565b6000819050919050565b60007fffffffffffffffff00000000000000000000000000000000000000000000000082169050919050565b600073ffffffffffffffffffffffffffffffffffffffff82169050919050565b6000819050919050565b60005b8381101562001a4a57808201518184015260208101905062001a2d565b8381111562001a5a576000848401525b50505050565b600062001a6d8262001a20565b91507fffffffffffffffffffffffffffffffffffffffffffffffffffffffffffffffff82141562001aa35762001aa262001ac2565b5b600182019050919050565b6000819050919050565b6000819050919050565b7f4e487b7100000000000000000000000000000000000000000000000000000000600052601160045260246000fd5b7f4e487b7100000000000000000000000000000000000000000000000000000000600052604160045260246000fd5b6000601f19601f8301169050919050565b62001b3c81620019aa565b811462001b4857600080fd5b50565b62001b5681620019be565b811462001b6257600080fd5b50565b62001b7081620019ca565b811462001b7c57600080fd5b50565b62001b8a81620019d4565b811462001b9657600080fd5b50565b62001ba48162001a20565b811462001bb057600080fd5b5056fe60806040523480156200001157600080fd5b50604051620022b1380380620022b183398181016040528101906200003791906200038f565b828281600390805190602001906200005192919062000256565b5080600490805190602001906200006a92919062000256565b50505033600560006101000a81548173ffffffffffffffffffffffffffffffffffffffff021916908373ffffffffffffffffffffffffffffffffffffffff16021790555060008114620000ca57620000c93382620000d360201b60201c565b5b5050506200069b565b600073ffffffffffffffffffffffffffffffffffffffff168273ffffffffffffffffffffffffffffffffffffffff16141562000146576040517f08c379a00000000000000000000000000000000000000000000000000000000081526004016200013d906200046a565b60405180910390fd5b6200015a600083836200024c60201b60201c565b80600260008282546200016e919062000521565b92505081905550806000808473ffffffffffffffffffffffffffffffffffffffff1673ffffffffffffffffffffffffffffffffffffffff1681526020019081526020016000206000828254620001c5919062000521565b925050819055508173ffffffffffffffffffffffffffffffffffffffff16600073ffffffffffffffffffffffffffffffffffffffff167fddf252ad1be2c89b69c2b068fc378daa952ba7f163c4a11628f55a4df523b3ef836040516200022c91906200048c565b60405180910390a362000248600083836200025160201b60201c565b5050565b505050565b505050565b8280546200026490620005be565b90600052602060002090601f016020900481019282620002885760008555620002d4565b82601f10620002a357805160ff1916838001178555620002d4565b82800160010185558215620002d4579182015b82811115620002d3578251825591602001919060010190620002b6565b5b509050620002e39190620002e7565b5090565b5b8082111562000302576000816000905550600101620002e8565b5090565b60006200031d6200031784620004dd565b620004a9565b9050828152602081018484840111156200033657600080fd5b6200034384828562000588565b509392505050565b600082601f8301126200035d57600080fd5b81516200036f84826020860162000306565b91505092915050565b600081519050620003898162000681565b92915050565b600080600060608486031215620003a557600080fd5b600084015167ffffffffffffffff811115620003c057600080fd5b620003ce868287016200034b565b935050602084015167ffffffffffffffff811115620003ec57600080fd5b620003fa868287016200034b565b92505060406200040d8682870162000378565b9150509250925092565b600062000426601f8362000510565b91507f45524332303a206d696e7420746f20746865207a65726f2061646472657373006000830152602082019050919050565b62000464816200057e565b82525050565b60006020820190508181036000830152620004858162000417565b9050919050565b6000602082019050620004a3600083018462000459565b92915050565b6000604051905081810181811067ffffffffffffffff82111715620004d357620004d262000652565b5b8060405250919050565b600067ffffffffffffffff821115620004fb57620004fa62000652565b5b601f19601f8301169050602081019050919050565b600082825260208201905092915050565b60006200052e826200057e565b91506200053b836200057e565b9250827fffffffffffffffffffffffffffffffffffffffffffffffffffffffffffffffff03821115620005735762000572620005f4565b5b828201905092915050565b6000819050919050565b60005b83811015620005a85780820151818401526020810190506200058b565b83811115620005b8576000848401525b50505050565b60006002820490506001821680620005d757607f821691505b60208210811415620005ee57620005ed62000623565b5b50919050565b7f4e487b7100000000000000000000000000000000000000000000000000000000600052601160045260246000fd5b7f4e487b7100000000000000000000000000000000000000000000000000000000600052602260045260246000fd5b7f4e487b7100000000000000000000000000000000000000000000000000000000600052604160045260246000fd5b6200068c816200057e565b81146200069857600080fd5b50565b611c0680620006ab6000396000f3fe608060405234801561001057600080fd5b50600436106100f55760003560e01c806342966c6811610097578063a457c2d711610066578063a457c2d714610286578063a9059cbb146102b6578063dd62ed3e146102e6578063f851a44014610316576100f5565b806342966c681461020057806370a082311461021c5780638f2839701461024c57806395d89b4114610268576100f5565b806323b872dd116100d357806323b872dd14610166578063313ce5671461019657806339509351146101b457806340c10f19146101e4576100f5565b806306fdde03146100fa578063095ea7b31461011857806318160ddd14610148575b600080fd5b610102610334565b60405161010f919061181b565b60405180910390f35b610132600480360381019061012d91906112cf565b6103c6565b60405161013f9190611800565b60405180910390f35b6101506103e4565b60405161015d919061199d565b60405180910390f35b610180600480360381019061017b9190611280565b6103ee565b60405161018d9190611800565b60405180910390f35b61019e6104e6565b6040516101ab91906119b8565b60405180910390f35b6101ce60048036038101906101c991906112cf565b6104ef565b6040516101db9190611800565b60405180910390f35b6101fe60048036038101906101f991906112cf565b61059b565b005b61021a6004803603810190610215919061130b565b610639565b005b6102366004803603810190610231919061121b565b6106f8565b604051610243919061199d565b60405180910390f35b6102666004803603810190610261919061121b565b610740565b005b610270610814565b60405161027d919061181b565b60405180910390f35b6102a0600480360381019061029b91906112cf565b6108a6565b6040516102ad9190611800565b60405180910390f35b6102d060048036038101906102cb91906112cf565b610991565b6040516102dd9190611800565b60405180910390f35b61030060048036038101906102fb9190611244565b6109af565b60405161030d919061199d565b60405180910390f35b61031e610a36565b60405161032b91906117e5565b60405180910390f35b60606003805461034390611b01565b80601f016020809104026020016040519081016040528092919081815260200182805461036f90611b01565b80156103bc5780601f10610391576101008083540402835291602001916103bc565b820191906000526020600020905b81548152906001019060200180831161039f57829003601f168201915b5050505050905090565b60006103da6103d3610a5c565b8484610a64565b6001905092915050565b6000600254905090565b60006103fb848484610c2f565b6000600160008673ffffffffffffffffffffffffffffffffffffffff1673ffffffffffffffffffffffffffffffffffffffff1681526020019081526020016000206000610446610a5c565b73ffffffffffffffffffffffffffffffffffffffff1673ffffffffffffffffffffffffffffffffffffffff168152602001908152602001600020549050828110156104c6576040517f08c379a00000000000000000000000000000000000000000000000000000000081526004016104bd906118dd565b60405180910390fd5b6104da856104d2610a5c565b858403610a64565b60019150509392505050565b60006012905090565b60006105916104fc610a5c565b84846001600061050a610a5c565b73ffffffffffffffffffffffffffffffffffffffff1673ffffffffffffffffffffffffffffffffffffffff16815260200190815260200160002060008873ffffffffffffffffffffffffffffffffffffffff1673ffffffffffffffffffffffffffffffffffffffff1681526020019081526020016000205461058c91906119ef565b610a64565b6001905092915050565b600560009054906101000a900473ffffffffffffffffffffffffffffffffffffffff1673ffffffffffffffffffffffffffffffffffffffff163373ffffffffffffffffffffffffffffffffffffffff161461062b576040517f08c379a00000000000000000000000000000000000000000000000000000000081526004016106229061185d565b60405180910390fd5b6106358282610eb0565b5050565b600560009054906101000a900473ffffffffffffffffffffffffffffffffffffffff1673ffffffffffffffffffffffffffffffffffffffff163373ffffffffffffffffffffffffffffffffffffffff16146106c9576040517f08c379a00000000000000000000000000000000000000000000000000000000081526004016106c09061185d565b60405180910390fd5b6106f5600560009054906101000a900473ffffffffffffffffffffffffffffffffffffffff1682611010565b50565b60008060008373ffffffffffffffffffffffffffffffffffffffff1673ffffffffffffffffffffffffffffffffffffffff168152602001908152602001600020549050919050565b600560009054906101000a900473ffffffffffffffffffffffffffffffffffffffff1673ffffffffffffffffffffffffffffffffffffffff163373ffffffffffffffffffffffffffffffffffffffff16146107d0576040517f08c379a00000000000000000000000000000000000000000000000000000000081526004016107c79061185d565b60405180910390fd5b80600560006101000a81548173ffffffffffffffffffffffffffffffffffffffff021916908373ffffffffffffffffffffffffffffffffffffffff16021790555050565b60606004805461082390611b01565b80601f016020809104026020016040519081016040528092919081815260200182805461084f90611b01565b801561089c5780601f106108715761010080835404028352916020019161089c565b820191906000526020600020905b81548152906001019060200180831161087f57829003601f168201915b5050505050905090565b600080600160006108b5610a5c565b73ffffffffffffffffffffffffffffffffffffffff1673ffffffffffffffffffffffffffffffffffffffff16815260200190815260200160002060008573ffffffffffffffffffffffffffffffffffffffff1673ffffffffffffffffffffffffffffffffffffffff16815260200190815260200160002054905082811015610972576040517f08c379a00000000000000000000000000000000000000000000000000000000081526004016109699061195d565b60405180910390fd5b61098661097d610a5c565b85858403610a64565b600191505092915050565b60006109a561099e610a5c565b8484610c2f565b6001905092915050565b6000600160008473ffffffffffffffffffffffffffffffffffffffff1673ffffffffffffffffffffffffffffffffffffffff16815260200190815260200160002060008373ffffffffffffffffffffffffffffffffffffffff1673ffffffffffffffffffffffffffffffffffffffff16815260200190815260200160002054905092915050565b600560009054906101000a900473ffffffffffffffffffffffffffffffffffffffff1681565b600033905090565b600073ffffffffffffffffffffffffffffffffffffffff168373ffffffffffffffffffffffffffffffffffffffff161415610ad4576040517f08c379a0000000000000000000000000000000000000000000000000000000008152600401610acb9061193d565b60405180910390fd5b600073ffffffffffffffffffffffffffffffffffffffff168273ffffffffffffffffffffffffffffffffffffffff161415610b44576040517f08c379a0000000000000000000000000000000000000000000000000000000008152600401610b3b9061189d565b60405180910390fd5b80600160008573ffffffffffffffffffffffffffffffffffffffff1673ffffffffffffffffffffffffffffffffffffffff16815260200190815260200160002060008473ffffffffffffffffffffffffffffffffffffffff1673ffffffffffffffffffffffffffffffffffffffff168152602001908152602001600020819055508173ffffffffffffffffffffffffffffffffffffffff168373ffffffffffffffffffffffffffffffffffffffff167f8c5be1e5ebec7d5bd14f71427d1e84f3dd0314c0f7b2291e5b200ac8c7c3b92583604051610c22919061199d565b60405180910390a3505050565b600073ffffffffffffffffffffffffffffffffffffffff168373ffffffffffffffffffffffffffffffffffffffff161415610c9f576040517f08c379a0000000000000000000000000000000000000000000000000000000008152600401610c969061191d565b60405180910390fd5b600073ffffffffffffffffffffffffffffffffffffffff168273ffffffffffffffffffffffffffffffffffffffff161415610d0f576040517f08c379a0000000000000000000000000000000000000000000000000000000008152600401610d069061183d565b60405180910390fd5b610d1a8383836111e7565b60008060008573ffffffffffffffffffffffffffffffffffffffff1673ffffffffffffffffffffffffffffffffffffffff16815260200190815260200160002054905081811015610da0576040517f08c379a0000000000000000000000000000000000000000000000000000000008152600401610d97906118bd565b60405180910390fd5b8181036000808673ffffffffffffffffffffffffffffffffffffffff1673ffffffffffffffffffffffffffffffffffffffff16815260200190815260200160002081905550816000808573ffffffffffffffffffffffffffffffffffffffff1673ffffffffffffffffffffffffffffffffffffffff1681526020019081526020016000206000828254610e3391906119ef565b925050819055508273ffffffffffffffffffffffffffffffffffffffff168473ffffffffffffffffffffffffffffffffffffffff167fddf252ad1be2c89b69c2b068fc378daa952ba7f163c4a11628f55a4df523b3ef84604051610e97919061199d565b60405180910390a3610eaa8484846111ec565b50505050565b600073ffffffffffffffffffffffffffffffffffffffff168273ffffffffffffffffffffffffffffffffffffffff161415610f20576040517f08c379a0000000000000000000000000000000000000000000000000000000008152600401610f179061197d565b60405180910390fd5b610f2c600083836111e7565b8060026000828254610f3e91906119ef565b92505081905550806000808473ffffffffffffffffffffffffffffffffffffffff1673ffffffffffffffffffffffffffffffffffffffff1681526020019081526020016000206000828254610f9391906119ef565b925050819055508173ffffffffffffffffffffffffffffffffffffffff16600073ffffffffffffffffffffffffffffffffffffffff167fddf252ad1be2c89b69c2b068fc378daa952ba7f163c4a11628f55a4df523b3ef83604051610ff8919061199d565b60405180910390a361100c600083836111ec565b5050565b600073ffffffffffffffffffffffffffffffffffffffff168273ffffffffffffffffffffffffffffffffffffffff161415611080576040517f08c379a0000000000000000000000000000000000000000000000000000000008152600401611077906118fd565b60405180910390fd5b61108c826000836111e7565b60008060008473ffffffffffffffffffffffffffffffffffffffff1673ffffffffffffffffffffffffffffffffffffffff16815260200190815260200160002054905081811015611112576040517f08c379a00000000000000000000000000000000000000000000000000000000081526004016111099061187d565b60405180910390fd5b8181036000808573ffffffffffffffffffffffffffffffffffffffff1673ffffffffffffffffffffffffffffffffffffffff1681526020019081526020016000208190555081600260008282546111699190611a45565b92505081905550600073ffffffffffffffffffffffffffffffffffffffff168373ffffffffffffffffffffffffffffffffffffffff167fddf252ad1be2c89b69c2b068fc378daa952ba7f163c4a11628f55a4df523b3ef846040516111ce919061199d565b60405180910390a36111e2836000846111ec565b505050565b505050565b505050565b60008135905061120081611ba2565b92915050565b60008135905061121581611bb9565b92915050565b60006020828403121561122d57600080fd5b600061123b848285016111f1565b91505092915050565b6000806040838503121561125757600080fd5b6000611265858286016111f1565b9250506020611276858286016111f1565b9150509250929050565b60008060006060848603121561129557600080fd5b60006112a3868287016111f1565b93505060206112b4868287016111f1565b92505060406112c586828701611206565b9150509250925092565b600080604083850312156112e257600080fd5b60006112f0858286016111f1565b925050602061130185828601611206565b9150509250929050565b60006020828403121561131d57600080fd5b600061132b84828501611206565b91505092915050565b61133d81611a79565b82525050565b61134c81611a8b565b82525050565b600061135d826119d3565b61136781856119de565b9350611377818560208601611ace565b61138081611b91565b840191505092915050565b60006113986023836119de565b91507f45524332303a207472616e7366657220746f20746865207a65726f206164647260008301527f65737300000000000000000000000000000000000000000000000000000000006020830152604082019050919050565b60006113fe6028836119de565b91507f6f6e6c792061646d696e20697320616c6c6f77656420746869732066756e637460008301527f696f6e616c6974790000000000000000000000000000000000000000000000006020830152604082019050919050565b60006114646022836119de565b91507f45524332303a206275726e20616d6f756e7420657863656564732062616c616e60008301527f63650000000000000000000000000000000000000000000000000000000000006020830152604082019050919050565b60006114ca6022836119de565b91507f45524332303a20617070726f766520746f20746865207a65726f20616464726560008301527f73730000000000000000000000000000000000000000000000000000000000006020830152604082019050919050565b60006115306026836119de565b91507f45524332303a207472616e7366657220616d6f756e742065786365656473206260008301527f616c616e636500000000000000000000000000000000000000000000000000006020830152604082019050919050565b60006115966028836119de565b91507f45524332303a207472616e7366657220616d6f756e742065786365656473206160008301527f6c6c6f77616e63650000000000000000000000000000000000000000000000006020830152604082019050919050565b60006115fc6021836119de565b91507f45524332303a206275726e2066726f6d20746865207a65726f2061646472657360008301527f73000000000000000000000000000000000000000000000000000000000000006020830152604082019050919050565b60006116626025836119de565b91507f45524332303a207472616e736665722066726f6d20746865207a65726f20616460008301527f64726573730000000000000000000000000000000000000000000000000000006020830152604082019050919050565b60006116c86024836119de565b91507f45524332303a20617070726f76652066726f6d20746865207a65726f2061646460008301527f72657373000000000000000000000000000000000000000000000000000000006020830152604082019050919050565b600061172e6025836119de565b91507f45524332303a2064656372656173656420616c6c6f77616e63652062656c6f7760008301527f207a65726f0000000000000000000000000000000000000000000000000000006020830152604082019050919050565b6000611794601f836119de565b91507f45524332303a206d696e7420746f20746865207a65726f2061646472657373006000830152602082019050919050565b6117d081611ab7565b82525050565b6117df81611ac1565b82525050565b60006020820190506117fa6000830184611334565b92915050565b60006020820190506118156000830184611343565b92915050565b600060208201905081810360008301526118358184611352565b905092915050565b600060208201905081810360008301526118568161138b565b9050919050565b60006020820190508181036000830152611876816113f1565b9050919050565b6000602082019050818103600083015261189681611457565b9050919050565b600060208201905081810360008301526118b6816114bd565b9050919050565b600060208201905081810360008301526118d681611523565b9050919050565b600060208201905081810360008301526118f681611589565b9050919050565b60006020820190508181036000830152611916816115ef565b9050919050565b6000602082019050818103600083015261193681611655565b9050919050565b60006020820190508181036000830152611956816116bb565b9050919050565b6000602082019050818103600083015261197681611721565b9050919050565b6000602082019050818103600083015261199681611787565b9050919050565b60006020820190506119b260008301846117c7565b92915050565b60006020820190506119cd60008301846117d6565b92915050565b600081519050919050565b600082825260208201905092915050565b60006119fa82611ab7565b9150611a0583611ab7565b9250827fffffffffffffffffffffffffffffffffffffffffffffffffffffffffffffffff03821115611a3a57611a39611b33565b5b828201905092915050565b6000611a5082611ab7565b9150611a5b83611ab7565b925082821015611a6e57611a6d611b33565b5b828203905092915050565b6000611a8482611a97565b9050919050565b60008115159050919050565b600073ffffffffffffffffffffffffffffffffffffffff82169050919050565b6000819050919050565b600060ff82169050919050565b60005b83811015611aec578082015181840152602081019050611ad1565b83811115611afb576000848401525b50505050565b60006002820490506001821680611b1957607f821691505b60208210811415611b2d57611b2c611b62565b5b50919050565b7f4e487b7100000000000000000000000000000000000000000000000000000000600052601160045260246000fd5b7f4e487b7100000000000000000000000000000000000000000000000000000000600052602260045260246000fd5b6000601f19601f8301169050919050565b611bab81611a79565b8114611bb657600080fd5b50565b611bc281611ab7565b8114611bcd57600080fd5b5056fea26469706673582212201e7a0e4da868f21aae419686458dbcf2fbde2afab0b3bd4fff1636246de0cbfd64736f6c63430008000033a26469706673582212200e298a8283cb12064aac01d0372b472cb5acfd304964575a15120a8237511bff64736f6c63430008000033",
  "immutableReferences": {},
  "source": "// SPDX-License-Identifier: MIT\npragma solidity ^0.8.0;\n\nimport \"./ntt54_ERC20.sol\";\n\n\n///@title A factory to mint ERC20 tokens\n///@author ntt54\ncontract ntt54_Factory {\n\n    address public admin;\n    struct Token {\n        bytes32 tokenID;\n        bytes8 tokenTicker;\n        uint tokenSupply;\n        address tokenAddress;\n    }\n\n    mapping(bytes32 => Token) public tokens;       //tokens[tokenID e.g. bitcoin in bytes32} => {0x28398298729, \"BTC\",1000,0x28358253}\n    bytes32[] public tokenIDs;\n\n     \n    modifier onlyAdmin {\n        require(msg.sender==admin,\"only admin is allowed this functionality\");\n        _;\n    }\n\n    constructor (address _admin) {\n        admin = _admin;\n    }\n\n\n    /// @notice Get an array with all tokens. Each element is a struct with tokenID, tokenTicker, tokenSupply, tokenAddress.\n    function getAllTokens() external view returns(Token[] memory) {\n        Token[] memory tokensStructs = new Token[](tokenIDs.length);\n        for (uint i=0; i < tokenIDs.length; i++) {\n            tokensStructs[i] = tokens[ tokenIDs[i] ];      \n        }\n        return tokensStructs;\n    }\n    \n    /**\n        @notice Mint a list of ERC20 tokens. A token can only be minted once.\n        @param names Array of names in bytes32 of ERC20 tokens to be minted\n        @param tickers Array of tickers in bytes8 of ERC20 tokens to be minted\n        @param initialSupply Array of initial supply of ERC20 tokens to be minted\n    */\n    function initialERC20Mint (bytes32[] memory names, bytes8[] memory tickers, uint[] memory initialSupply ) external onlyAdmin {\n        require(names.length == tickers.length && names.length == initialSupply.length, \"arrays of names,tickers,initialSupply must have the same length\");\n\n        for (uint i=0; i < names.length; i++)\n        {\n            if (tokens[names[i]].tokenAddress == address(0)) \n            {\n                ntt54_ERC20 newERC20 = new ntt54_ERC20(string(abi.encodePacked(names[i])), string(abi.encodePacked(tickers[i])), initialSupply[i] );\n                tokens[names[i]] = Token({tokenID: names[i], tokenTicker: tickers[i], tokenSupply: initialSupply[i] , tokenAddress: address(newERC20) }) ;\n                tokenIDs.push( names[i] );\n            }\n\n        }\n\n    }\n\n    /**\n        @notice Change the administrator of an ERC20 if this contract is the admin of that token. Useful if initial supply is minted to this contract \n        @param newAdmin This will be the new admin of ERC20 token.\n        @param tokID The token ID \n    */\n    function changeAdminOfERC20 (address newAdmin, bytes32 tokID) external onlyAdmin {\n        require( tokens[tokID].tokenAddress != address(0),\"token does not exist\");\n\n        ntt54_ERC20 token = ntt54_ERC20( tokens[tokID].tokenAddress );\n        if (token.admin()== address(this) && newAdmin!=address(this))\n        {\n            token.changeAdmin(newAdmin);\n        }\n    }\n\n    /**\n        @notice Approve an address to be able to transfer all balance for all tokens\n        @param spender Spender address will be able to withdraw all balance or all tokens.\n    */\n    function approveAddress(address spender) external onlyAdmin {\n        for (uint i=0; i < tokenIDs.length; i++)\n        {\n            ntt54_ERC20 token = ntt54_ERC20( tokens[ tokenIDs[i] ].tokenAddress );\n            uint balance = token.balanceOf(address(this));\n            if (balance > 0) \n            {\n                token.approve(spender, balance);\n            }\n        }\n    }\n\n}\n\n\n",
  "sourcePath": "/Users/angelos-imac/Dropbox/Cryptos/Darwinia/ntt54_Oracle/ntt54_Oracle_truffle/contracts/ntt54_Factory.sol",
  "compiler": {
    "name": "solc",
    "version": "0.8.0+commit.c7dfd78e.Emscripten.clang"
  },
  "schemaVersion": "3.4.5",
  "updatedAt": "2022-02-24T11:56:17.888Z",
  "networkType": "ethereum",
  "devdoc": {
    "author": "ntt54",
    "kind": "dev",
    "methods": {
      "approveAddress(address)": {
        "params": {
          "spender": "Spender address will be able to withdraw all balance or all tokens."
        }
      },
      "changeAdminOfERC20(address,bytes32)": {
        "params": {
          "newAdmin": "This will be the new admin of ERC20 token.",
          "tokID": "The token ID "
        }
      },
      "initialERC20Mint(bytes32[],bytes8[],uint256[])": {
        "params": {
          "initialSupply": "Array of initial supply of ERC20 tokens to be minted",
          "names": "Array of names in bytes32 of ERC20 tokens to be minted",
          "tickers": "Array of tickers in bytes8 of ERC20 tokens to be minted"
        }
      }
    },
    "title": "A factory to mint ERC20 tokens",
    "version": 1
  },
  "userdoc": {
    "kind": "user",
    "methods": {
      "approveAddress(address)": {
        "notice": "Approve an address to be able to transfer all balance for all tokens"
      },
      "changeAdminOfERC20(address,bytes32)": {
        "notice": "Change the administrator of an ERC20 if this contract is the admin of that token. Useful if initial supply is minted to this contract "
      },
      "getAllTokens()": {
        "notice": "Get an array with all tokens. Each element is a struct with tokenID, tokenTicker, tokenSupply, tokenAddress."
      },
      "initialERC20Mint(bytes32[],bytes8[],uint256[])": {
        "notice": "Mint a list of ERC20 tokens. A token can only be minted once."
      }
    },
    "version": 1
  }
}